:100000000C9461000C947E000C947E000C947E0095
:100010000C947E000C947E000C947E000C947E0068
:100020000C947E000C947E000C947E000C947E0058
:100030000C947E000C947E000C947E000C947E0048
:100040000C9435020C947E000C947E000C947E007F
:100050000C947E000C947E000C947E000C947E0028
:100060000C947E000C947E00000000002400270009
:100070002A0000000000250028002B0000000000DE
:1000800023002600290004040404040404040202DA
:100090000202020203030303030301020408102007
:1000A0004080010204081020010204081020000012
:1000B0000008000201000003040700000000000027
:1000C000000011241FBECFEFD8E0DEBFCDBF11E08E
:1000D000A0E0B1E0E0E3FAE002C005900D92AA30A2
:1000E000B107D9F721E0AAE0B1E001C01D92A73223
:1000F000B207E1F70E947F020C9416050C940000F1
:10010000833081F028F4813099F08230A9F008958D
:100110008730A9F08830C9F08430B1F48091800034
:100120008F7D03C0809180008F7780938000089539
:1001300084B58F7784BD089584B58F7DFBCF809182
:10014000B0008F778093B00008958091B0008F7DCC
:10015000F9CFCF93DF93282F30E0F901E255FF4F1D
:100160008491F901E656FF4FD491F901EA57FF4F08
:10017000C491CC23A1F081110E948000EC2FF0E00B
:10018000EE0FFF1FE458FF4FA591B491EC91ED23C2
:1001900081E090E009F480E0DF91CF91089580E064
:1001A00090E0FACF1F93CF93DF93282F30E0F9012F
:1001B000E255FF4F8491F901E656FF4FD491F901C2
:1001C000EA57FF4FC491CC23A9F0162F81110E944A
:1001D0008000EC2FF0E0EE0FFF1FEE58FF4FA591CF
:1001E000B4918FB7F894EC91111108C0D095DE232B
:1001F000DC938FBFDF91CF911F910895DE2BF8CF55
:10020000CF93DF9390E0FC01E656FF4F24918A578D
:100210009F4FFC0184918823D1F090E0880F991FB3
:10022000FC01E859FF4FA591B491FC01EE58FF4F36
:10023000C591D491623071F49FB7F8943C91822FAC
:10024000809583238C93E8812E2B28839FBFDF9199
:10025000CF9108958FB7F894EC912E2B2C938FBFEC
:10026000F6CF3FB7F89480911F0190912001A091A3
:100270002101B091220126B5A89B05C02F3F19F09E
:100280000196A11DB11D3FBFBA2FA92F982F882716
:10029000BC01CD01620F711D811D911D42E0660FF1
:1002A000771F881F991F4A95D1F708958F929F92C3
:1002B000AF92BF92CF92DF92EF92FF924B015C011F
:1002C0000E9431016B017C010E9431016C197D0992
:1002D0008E099F09683E734081059105A8F321E0CE
:1002E000821A9108A108B10888EEC80E83E0D81ED2
:1002F000E11CF11C81149104A104B10429F7FF90C1
:10030000EF90DF90CF90BF90AF909F908F90089527
:100310002FB7F89460911B0170911C0180911D0111
:1003200090911E012FBF089561E088E00E94D200E5
:1003300060E089E00C94D2000F931F93CF93DF937A
:10034000FC01E75FFE4F8081813069F5108201E09A
:1003500010E060E08CE00E94D200D0E0C0E060E0FD
:100360008BE00E94D200CE010230110509F40896FC
:10037000865F9E4FFC0160818AE00E94D20061E0AE
:100380008BE00E94D2002196C830D10541F761E090
:100390008CE00E94D2000230110541F4DF91CF9130
:1003A0001F910F91089581E08083D1CF02E010E08A
:1003B000D0CFCF92DF92EF92FF920F931F93CF9304
:1003C000DF93CDB7DEB72A970FB6F894DEBF0FBE26
:1003D000CDBF2AE0E0E0F1E0DE01119601900D9240
:1003E0002A95E1F729E0E22EF12C880F991F01E010
:1003F00010E00C0F1D1F080F191F60E08CE00E9419
:10040000D20060E08BE00E94D200F801C08088E05A
:10041000D82E6C2D61708AE00E94D200C69461E0F3
:100420008BE00E94D20060E08BE00E94D200DA9460
:10043000D110EFCF61E08BE00E94D20061E08CE050
:100440000E94D200F1E0EF1AF108B9F62A960FB631
:10045000F894DEBF0FBECDBFDF91CF911F910F91FA
:10046000FF90EF90DF90CF9008951F920F920FB6FC
:100470000F9211242F933F938F939F93AF93BF932A
:1004800080911B0190911C01A0911D01B0911E0152
:1004900030911A0123E0230F2D3758F50196A11D45
:1004A000B11D20931A0180931B0190931C01A0930E
:1004B0001D01B0931E0180911F0190912001A09118
:1004C0002101B09122010196A11DB11D80931F0150
:1004D00090932001A0932101B0932201BF91AF918D
:1004E0009F918F913F912F910F900FBE0F901F9072
:1004F000189526E8230F0296A11DB11DD2CF78943E
:1005000084B5826084BD84B5816084BD85B5826018
:1005100085BD85B5816085BD80916E0081608093C9
:100520006E00109281008091810082608093810032
:100530008091810081608093810080918000816042
:10054000809380008091B10084608093B10080919D
:10055000B00081608093B00080917A0084608093C5
:100560007A0080917A00826080937A0080917A008C
:10057000816080937A0080917A00806880937A000D
:100580001092C10062E082E00E94000162E083E01C
:100590000E94000162E084E00E94000162E085E0C8
:1005A0000E94000162E086E00E94000161E087E0B5
:1005B0000E94000161E088E00E94000161E089E0A2
:1005C0000E94000161E08CE00E94000161E08BE08C
:1005D0000E94000161E08AE00E94000192E0E92EA1
:1005E000F12CC3E0D0E0CE010E949C010BE010E0B2
:1005F000C8010E949C0168E270E080E090E00E94E7
:1006000056010F5F1F4F0031110591F72196C83039
:10061000D10549F7EA94EF2809F076C161E088E056
:100620000E94D20061E089E00E94D20068EC70E094
:1006300080E090E00E94560160E088E00E94D200D5
:10064000C0E0D0E082E00E94A900092E000CAA0BB5
:10065000BB0B8093230190932401A0932501B093B9
:10066000260182E00E94A900892B91F50E94880151
:100670006B017C01C0922301D0922401E0922501FC
:10068000F09226010E9488016C197D098E099F094C
:10069000603D77408105910528F482E00E94A90021
:1006A000892B81F30E9488016C197D098E099F09AD
:1006B0006C3271408105910508F033C189E00E94D8
:1006C000A900019709F024C18BE090E00E949C01F1
:1006D00083E00E94A900092E000CAA0BBB0B80939B
:1006E000230190932401A0932501B093260183E078
:1006F0000E94A900892B91F50E9488016B017C0161
:10070000C0922301D0922401E0922501F0922601AB
:100710000E9488016C197D098E099F09603D774010
:100720008105910528F483E00E94A900892B81F3BB
:100730000E9488016C197D098E099F096C327140F5
:100740008105910508F024C189E00E94A900019764
:1007500009F015C18CE090E00E949C0184E00E94A9
:10076000A900092E000CAA0BBB0B809323019093C8
:100770002401A0932501B093260184E00E94A900E2
:10078000892B89F50E9488016B017C01C0922301AD
:10079000D0922401E0922501F09226010E94880166
:1007A0006C197D098E099F09603D7740810591058F
:1007B00028F484E00E94A900892B81F30E9488011B
:1007C0006C197D098E099F096C3271408105910574
:1007D00050F489E00E94A900019709F0F1C082E07D
:1007E00090E00E94D90185E00E94A900092E000C2A
:1007F000AA0BBB0B8093230190932401A0932501A6
:10080000B093260185E00E94A900892B89F50E94FA
:1008100088016B017C01C0922301D0922401E092F7
:100820002501F09226010E9488016C197D098E092C
:100830009F09603D77408105910528F485E00E947D
:10084000A900892B81F30E9488016C197D098E090A
:100850009F096C3271408105910550F489E00E9436
:10086000A900019709F0B7C083E090E00E94D90188
:1008700086E00E94A900092E000CAA0BBB0B8093F6
:10088000230190932401A0932501B093260186E0D3
:100890000E94A900892B91F50E9488016B017C01BF
:1008A000C0922301D0922401E0922501F09226010A
:1008B0000E9488016C197D098E099F09603D77406F
:1008C0008105910528F486E00E94A900892B81F317
:1008D0000E9488016C197D098E099F096C32714054
:1008E0008105910508F08DC089E00E94A90001975B
:1008F00009F07CC084E090E00E94D901209709F4BF
:10090000A1CE0E9400009ECEEE24E394F12C69CE8D
:1009100088E00E94A900019709F0DACE83E090E018
:10092000D5CE0E9488016C197D098E099F09603D12
:1009300077408105910590F480E290E00E949C014F
:1009400060E088E00E94D20061E089E00E94D2006D
:1009500082E00E94A900892BD9F3BACE89E00E94D7
:10096000A900019749F70E94940180E290E00E945B
:100970009C0182E00E94A900892BD9F3A9CE88E0CE
:100980000E94A900019709F0E9CE84E090E0E4CE4E
:100990000E9488016C197D098E099F09603D77408E
:1009A0008105910508F4DACE88E00E94A90001973C
:1009B00009F0D4CE83E00E94A900892BD9F3CECED2
:1009C00088E00E94A900019709F00DCF85E090E032
:1009D0000E949C0108CF88E00E94A900019709F0BD
:1009E00047CF86E090E00E949C0142CF88E00E94C1
:1009F000A900019709F082CF87E090E00E949C0156
:100A00007DCF0E9488016C197D098E099F09603D88
:100A100077408105910508F471CF88E00E94A90014
:100A2000019709F06BCF0E94940168CFF894FFCF33
:0A0A300008001000200040008000C4
:00000001FF
